{"runId":"2026-07-11T11-08-34-252Z-waku-reliability-94931534","at":1783768114289,"type":"run_started","detail":{"topicScope":"fault-66ab98a641ba","codeRevision":"sha256:c5976e80c63c2f02"}}
{"runId":"2026-07-11T11-08-34-252Z-waku-reliability-94931534","at":1783768115209,"type":"rpc_ready","detail":{"blockNumber":0}}
{"runId":"2026-07-11T11-08-34-252Z-waku-reliability-94931534","at":1783768116354,"type":"contracts_deployed","detail":{"contracts":{"usdc":"0x5FbDB2315678afecb367f032d93F642f64180aa3","v2Factory":"0xe7f1725E7734CE288F8367e1Bb143E90bb3F0512","v2Router":"0x9fE46736679d2D9a65F0992F2272dE9f3c7fa6e0","agents":"0xCf7Ed3AccA5a467e9e704C703E8D87F634fB0Fc9","arena":"0xa513E6E4b8f2a923D98304ec87F64353C4D5C853","syndicate":"0xDc64a140Aa3E981100a9becA4E685f962f0cF6C9","treasury":"0x5FC8d32690cc91D4c39d9d3abcBD16989F875707","missionEscrow":"0x0165878A594ca255338adfa4d48449f69242Eb8F","graduation":"0x2279B7A0a67DB372996a5FaB50D91eAA73d2eBe6","router":"0x9fE46736679d2D9a65F0992F2272dE9f3c7fa6e0","protocolRecipient":"0xf39Fd6e51aad88F6F4ce6aB8827279cffFb92266","graduationFloor":"1000000000"}}}
{"runId":"2026-07-11T11-08-34-252Z-waku-reliability-94931534","at":1783768116811,"type":"cypher_ready","detail":{"name":"alpha","address":"0x094008467AA07e8e813e13f520d8A71ae5258E42","agentId":1,"hatchHash":"0xb5fa4938754b6f52a4495aa1d019db6e4d55d0c51a5462673c34f15ab7946f9c","commitHash":"0x70cd41612491f98f643d98366ffdb1b9513a7d297519c2fc6b5ec1c714be8091"}}
{"runId":"2026-07-11T11-08-34-252Z-waku-reliability-94931534","at":1783768117237,"type":"cypher_ready","detail":{"name":"beta","address":"0xcE3efE304dDfFd05AC1c25a9Dc4d771266313C08","agentId":2,"hatchHash":"0xab948ea6af0ad20ed00e2282961b27d72e889500e1e34eff1f9771ced1a69696","commitHash":"0xcea4011f47353722234009ad2e4abd41b12dfafa3103214d5c1730c0a60c4e88"}}
{"runId":"2026-07-11T11-08-34-252Z-waku-reliability-94931534","at":1783768117665,"type":"cypher_ready","detail":{"name":"partition-alpha","address":"0xe0Fc95Be474212b6cc5bCE68010891b1Cf5e0B36","agentId":3,"hatchHash":"0x243b9305c16f272ed0719dae12cc441e0e0ef32498fb693a2f23c8608bbde128","commitHash":"0x9acb534984a334e9b3ba0d88119d4fa1d5bfdb1d978f10c3ba3f9522ba2541fc"}}
{"runId":"2026-07-11T11-08-34-252Z-waku-reliability-94931534","at":1783768118082,"type":"cypher_ready","detail":{"name":"partition-beta","address":"0xAEf502594C6B4bf37F1eF4Fccf88cF76625B1Fe7","agentId":4,"hatchHash":"0xb3e6310d803ecf9ab236429206f3af753c03d4e691200bece906448faa3c08ee","commitHash":"0x40a82efd0c262c0c713bdb5f01431711eb6d5e4260ea70f41a868c0679e0c823"}}
{"runId":"2026-07-11T11-08-34-252Z-waku-reliability-94931534","at":1783768120139,"type":"started","detail":{"workerProcess":"beta","worker":"beta","address":"0xce3efe304ddffd05ac1c25a9dc4d771266313c08","cypherId":"2","listen":{"transport":"waku","contentTopic":"/versus/1/postcards-31337-cf7ed3acca5a467e9e704c703e8d87f634fb0fc9-1-fault-66ab98a641ba/json","peerCount":2,"peers":[{"id":"16Uiu2HAm8kegYGp6XeybmZAuNcnLosyjsRwZ44yLgfEuqLqYL9zt","protocols":["/vac/waku/filter-push/2.0.0-beta1","/vac/waku/filter-subscribe/2.0.0-beta1","/vac/waku/lightpush/2.0.0-beta1","/vac/waku/lightpush/3.0.0","/vac/waku/metadata/1.0.0","/vac/waku/relay/2.0.0","/vac/waku/store-query/3.0.0"]},{"id":"16Uiu2HAmCCQRbp36trRMKRjqhRv1GAD7i1Epty3q2LiutAYCJ1oN","protocols":["/vac/waku/filter-push/2.0.0-beta1","/vac/waku/filter-subscribe/2.0.0-beta1","/vac/waku/lightpush/2.0.0-beta1","/vac/waku/lightpush/3.0.0","/vac/waku/metadata/1.0.0","/vac/waku/relay/2.0.0","/vac/waku/store-query/3.0.0"]}],"protocolCounts":{"lightPush":2,"filter":2,"store":2,"relay":2}}}}
{"runId":"2026-07-11T11-08-34-252Z-waku-reliability-94931534","at":1783768120185,"type":"waku_history_synced","detail":{"workerProcess":"beta","worker":"beta","launchId":"1","contentTopic":"/versus/1/postcards-31337-cf7ed3acca5a467e9e704c703e8d87f634fb0fc9-1-fault-66ab98a641ba/json","received":0,"completedAt":1783768120185}}
{"runId":"2026-07-11T11-08-34-252Z-waku-reliability-94931534","at":1783768120195,"type":"started","detail":{"workerProcess":"partitionBeta","worker":"partition-beta","address":"0xaef502594c6b4bf37f1ef4fccf88cf76625b1fe7","cypherId":"4","listen":{"transport":"waku","contentTopic":"/versus/1/postcards-31337-cf7ed3acca5a467e9e704c703e8d87f634fb0fc9-1-fault-66ab98a641ba/json","peerCount":1,"peers":[{"id":"16Uiu2HAm8kegYGp6XeybmZAuNcnLosyjsRwZ44yLgfEuqLqYL9zt","protocols":["/vac/waku/filter-push/2.0.0-beta1","/vac/waku/filter-subscribe/2.0.0-beta1","/vac/waku/lightpush/2.0.0-beta1","/vac/waku/lightpush/3.0.0","/vac/waku/metadata/1.0.0","/vac/waku/relay/2.0.0","/vac/waku/store-query/3.0.0"]}],"protocolCounts":{"lightPush":1,"filter":1,"store":1,"relay":1}}}}
{"runId":"2026-07-11T11-08-34-252Z-waku-reliability-94931534","at":1783768120236,"type":"started","detail":{"workerProcess":"partitionAlpha","worker":"partition-alpha","address":"0xe0fc95be474212b6cc5bce68010891b1cf5e0b36","cypherId":"3","listen":{"transport":"waku","contentTopic":"/versus/1/postcards-31337-cf7ed3acca5a467e9e704c703e8d87f634fb0fc9-1-fault-66ab98a641ba/json","peerCount":1,"peers":[{"id":"16Uiu2HAm3cuhhRL2msUuLF62KRSfneFDx94RsuouyW25Ho42cFMq","protocols":["/vac/waku/filter-push/2.0.0-beta1","/vac/waku/filter-subscribe/2.0.0-beta1","/vac/waku/lightpush/2.0.0-beta1","/vac/waku/lightpush/3.0.0","/vac/waku/metadata/1.0.0","/vac/waku/relay/2.0.0","/vac/waku/store-query/3.0.0"]}],"protocolCounts":{"lightPush":1,"filter":1,"store":1,"relay":1}}}}
{"runId":"2026-07-11T11-08-34-252Z-waku-reliability-94931534","at":1783768120241,"type":"waku_history_synced","detail":{"workerProcess":"partitionBeta","worker":"partition-beta","launchId":"1","contentTopic":"/versus/1/postcards-31337-cf7ed3acca5a467e9e704c703e8d87f634fb0fc9-1-fault-66ab98a641ba/json","received":0,"completedAt":1783768120241}}
{"runId":"2026-07-11T11-08-34-252Z-waku-reliability-94931534","at":1783768120282,"type":"waku_history_synced","detail":{"workerProcess":"partitionAlpha","worker":"partition-alpha","launchId":"1","contentTopic":"/versus/1/postcards-31337-cf7ed3acca5a467e9e704c703e8d87f634fb0fc9-1-fault-66ab98a641ba/json","received":0,"completedAt":1783768120282}}
{"runId":"2026-07-11T11-08-34-252Z-waku-reliability-94931534","at":1783768120284,"type":"started","detail":{"workerProcess":"alpha","worker":"alpha","address":"0x094008467aa07e8e813e13f520d8a71ae5258e42","cypherId":"1","listen":{"transport":"waku","contentTopic":"/versus/1/postcards-31337-cf7ed3acca5a467e9e704c703e8d87f634fb0fc9-1-fault-66ab98a641ba/json","peerCount":2,"peers":[{"id":"16Uiu2HAm3cuhhRL2msUuLF62KRSfneFDx94RsuouyW25Ho42cFMq","protocols":["/vac/waku/filter-push/2.0.0-beta1","/vac/waku/filter-subscribe/2.0.0-beta1","/vac/waku/lightpush/2.0.0-beta1","/vac/waku/lightpush/3.0.0","/vac/waku/metadata/1.0.0","/vac/waku/relay/2.0.0","/vac/waku/store-query/3.0.0"]},{"id":"16Uiu2HAmCCQRbp36trRMKRjqhRv1GAD7i1Epty3q2LiutAYCJ1oN","protocols":["/vac/waku/filter-push/2.0.0-beta1","/vac/waku/filter-subscribe/2.0.0-beta1","/vac/waku/lightpush/2.0.0-beta1","/vac/waku/lightpush/3.0.0","/vac/waku/metadata/1.0.0","/vac/waku/relay/2.0.0","/vac/waku/store-query/3.0.0"]}],"protocolCounts":{"lightPush":2,"filter":2,"store":2,"relay":2}}}}
{"runId":"2026-07-11T11-08-34-252Z-waku-reliability-94931534","at":1783768120284,"type":"workers_ready","detail":{"workers":[{"address":"0x094008467aa07e8e813e13f520d8a71ae5258e42","listen":{"transport":"waku","contentTopic":"/versus/1/postcards-31337-cf7ed3acca5a467e9e704c703e8d87f634fb0fc9-1-fault-66ab98a641ba/json","peerCount":2,"peers":[{"id":"16Uiu2HAm3cuhhRL2msUuLF62KRSfneFDx94RsuouyW25Ho42cFMq","protocols":["/vac/waku/filter-push/2.0.0-beta1","/vac/waku/filter-subscribe/2.0.0-beta1","/vac/waku/lightpush/2.0.0-beta1","/vac/waku/lightpush/3.0.0","/vac/waku/metadata/1.0.0","/vac/waku/relay/2.0.0","/vac/waku/store-query/3.0.0"]},{"id":"16Uiu2HAmCCQRbp36trRMKRjqhRv1GAD7i1Epty3q2LiutAYCJ1oN","protocols":["/vac/waku/filter-push/2.0.0-beta1","/vac/waku/filter-subscribe/2.0.0-beta1","/vac/waku/lightpush/2.0.0-beta1","/vac/waku/lightpush/3.0.0","/vac/waku/metadata/1.0.0","/vac/waku/relay/2.0.0","/vac/waku/store-query/3.0.0"]}],"protocolCounts":{"lightPush":2,"filter":2,"store":2,"relay":2}}},{"address":"0xce3efe304ddffd05ac1c25a9dc4d771266313c08","listen":{"transport":"waku","contentTopic":"/versus/1/postcards-31337-cf7ed3acca5a467e9e704c703e8d87f634fb0fc9-1-fault-66ab98a641ba/json","peerCount":2,"peers":[{"id":"16Uiu2HAm8kegYGp6XeybmZAuNcnLosyjsRwZ44yLgfEuqLqYL9zt","protocols":["/vac/waku/filter-push/2.0.0-beta1","/vac/waku/filter-subscribe/2.0.0-beta1","/vac/waku/lightpush/2.0.0-beta1","/vac/waku/lightpush/3.0.0","/vac/waku/metadata/1.0.0","/vac/waku/relay/2.0.0","/vac/waku/store-query/3.0.0"]},{"id":"16Uiu2HAmCCQRbp36trRMKRjqhRv1GAD7i1Epty3q2LiutAYCJ1oN","protocols":["/vac/waku/filter-push/2.0.0-beta1","/vac/waku/filter-subscribe/2.0.0-beta1","/vac/waku/lightpush/2.0.0-beta1","/vac/waku/lightpush/3.0.0","/vac/waku/metadata/1.0.0","/vac/waku/relay/2.0.0","/vac/waku/store-query/3.0.0"]}],"protocolCounts":{"lightPush":2,"filter":2,"store":2,"relay":2}}},{"address":"0xe0fc95be474212b6cc5bce68010891b1cf5e0b36","listen":{"transport":"waku","contentTopic":"/versus/1/postcards-31337-cf7ed3acca5a467e9e704c703e8d87f634fb0fc9-1-fault-66ab98a641ba/json","peerCount":1,"peers":[{"id":"16Uiu2HAm3cuhhRL2msUuLF62KRSfneFDx94RsuouyW25Ho42cFMq","protocols":["/vac/waku/filter-push/2.0.0-beta1","/vac/waku/filter-subscribe/2.0.0-beta1","/vac/waku/lightpush/2.0.0-beta1","/vac/waku/lightpush/3.0.0","/vac/waku/metadata/1.0.0","/vac/waku/relay/2.0.0","/vac/waku/store-query/3.0.0"]}],"protocolCounts":{"lightPush":1,"filter":1,"store":1,"relay":1}}},{"address":"0xaef502594c6b4bf37f1ef4fccf88cf76625b1fe7","listen":{"transport":"waku","contentTopic":"/versus/1/postcards-31337-cf7ed3acca5a467e9e704c703e8d87f634fb0fc9-1-fault-66ab98a641ba/json","peerCount":1,"peers":[{"id":"16Uiu2HAm8kegYGp6XeybmZAuNcnLosyjsRwZ44yLgfEuqLqYL9zt","protocols":["/vac/waku/filter-push/2.0.0-beta1","/vac/waku/filter-subscribe/2.0.0-beta1","/vac/waku/lightpush/2.0.0-beta1","/vac/waku/lightpush/3.0.0","/vac/waku/metadata/1.0.0","/vac/waku/relay/2.0.0","/vac/waku/store-query/3.0.0"]}],"protocolCounts":{"lightPush":1,"filter":1,"store":1,"relay":1}}}]}}
{"runId":"2026-07-11T11-08-34-252Z-waku-reliability-94931534","at":1783768120309,"type":"settlement_prepared","detail":{"workerProcess":"alpha","worker":"alpha","root":"0xa7b5ed97bb496594ea5a7ec02e099399388c241edd66889ca4cf55692709681d","postcardId":"0xc567ca1e412c3e183943f4fc771c32cedcfbc24907d56102bdee36a26e0aacfb","pennies":1}}
{"runId":"2026-07-11T11-08-34-252Z-waku-reliability-94931534","at":1783768120329,"type":"waku_history_synced","detail":{"workerProcess":"alpha","worker":"alpha","launchId":"1","contentTopic":"/versus/1/postcards-31337-cf7ed3acca5a467e9e704c703e8d87f634fb0fc9-1-fault-66ab98a641ba/json","received":0,"completedAt":1783768120329}}
{"runId":"2026-07-11T11-08-34-252Z-waku-reliability-94931534","at":1783768120379,"type":"settlement_submitted","detail":{"workerProcess":"alpha","worker":"alpha","root":"0xa7b5ed97bb496594ea5a7ec02e099399388c241edd66889ca4cf55692709681d","transactionHash":"0xefa24a9cd1dfc527f85987365a37ccbfce3f6974d2746c3c71d0b62a72d2d592"}}
{"runId":"2026-07-11T11-08-34-252Z-waku-reliability-94931534","at":1783768120569,"type":"waku_published","detail":{"workerProcess":"alpha","worker":"alpha","postcardId":"0xc567ca1e412c3e183943f4fc771c32cedcfbc24907d56102bdee36a26e0aacfb","startedAt":1783768120472,"completedAt":1783768120569,"successCount":2,"failureCount":0}}
{"runId":"2026-07-11T11-08-34-252Z-waku-reliability-94931534","at":1783768120569,"type":"postcard_accepted","detail":{"workerProcess":"alpha","worker":"alpha","postcardId":"0xc567ca1e412c3e183943f4fc771c32cedcfbc24907d56102bdee36a26e0aacfb","author":"0x094008467aa07e8e813e13f520d8a71ae5258e42","type":"observation","source":"local"}}
{"runId":"2026-07-11T11-08-34-252Z-waku-reliability-94931534","at":1783768120570,"type":"postcard_published","detail":{"workerProcess":"alpha","worker":"alpha","postcardId":"0xc567ca1e412c3e183943f4fc771c32cedcfbc24907d56102bdee36a26e0aacfb","transactionHash":"0xefa24a9cd1dfc527f85987365a37ccbfce3f6974d2746c3c71d0b62a72d2d592","blockNumber":34,"gasUsed":"128614","published":1,"staged":0,"deliveryPending":false,"deliveryError":null}}
{"runId":"2026-07-11T11-08-34-252Z-waku-reliability-94931534","at":1783768120612,"type":"postcard_accepted","detail":{"workerProcess":"beta","worker":"beta","postcardId":"0xc567ca1e412c3e183943f4fc771c32cedcfbc24907d56102bdee36a26e0aacfb","author":"0x094008467aa07e8e813e13f520d8a71ae5258e42","type":"observation","source":"peer"}}
{"runId":"2026-07-11T11-08-34-252Z-waku-reliability-94931534","at":1783768120613,"type":"postcard_accepted","detail":{"workerProcess":"partitionAlpha","worker":"partition-alpha","postcardId":"0xc567ca1e412c3e183943f4fc771c32cedcfbc24907d56102bdee36a26e0aacfb","author":"0x094008467aa07e8e813e13f520d8a71ae5258e42","type":"observation","source":"peer"}}
{"runId":"2026-07-11T11-08-34-252Z-waku-reliability-94931534","at":1783768120658,"type":"postcard_accepted","detail":{"workerProcess":"partitionBeta","worker":"partition-beta","postcardId":"0xc567ca1e412c3e183943f4fc771c32cedcfbc24907d56102bdee36a26e0aacfb","author":"0x094008467aa07e8e813e13f520d8a71ae5258e42","type":"observation","source":"peer"}}
{"runId":"2026-07-11T11-08-34-252Z-waku-reliability-94931534","at":1783768120773,"type":"scenario_pass","detail":{"scenario":"normal_two_way","postcardId":"0xc567ca1e412c3e183943f4fc771c32cedcfbc24907d56102bdee36a26e0aacfb"}}
{"runId":"2026-07-11T11-08-34-252Z-waku-reliability-94931534","at":1783768121391,"type":"fault_injected","detail":{"scenario":"relay_kill","node":"node1"}}
{"runId":"2026-07-11T11-08-34-252Z-waku-reliability-94931534","at":1783768123201,"type":"settlement_prepared","detail":{"workerProcess":"alpha","worker":"alpha","root":"0x45d535d99b47692e4a18de822f74ed3556268a9951583207f26f39e7e4b51f93","postcardId":"0x92acd03087af61bbb59766ce8a2329aeeff83d991e123a7adadd213a3b09234c","pennies":1}}
{"runId":"2026-07-11T11-08-34-252Z-waku-reliability-94931534","at":1783768123280,"type":"settlement_submitted","detail":{"workerProcess":"alpha","worker":"alpha","root":"0x45d535d99b47692e4a18de822f74ed3556268a9951583207f26f39e7e4b51f93","transactionHash":"0x8605df41b63b3ec7a6b96e92fd6038469be8cb13312103a1c7998602def086ad"}}
{"runId":"2026-07-11T11-08-34-252Z-waku-reliability-94931534","at":1783768123393,"type":"postcard_delivery_pending","detail":{"workerProcess":"alpha","worker":"alpha","postcardId":"0x92acd03087af61bbb59766ce8a2329aeeff83d991e123a7adadd213a3b09234c","transactionHash":"0x8605df41b63b3ec7a6b96e92fd6038469be8cb13312103a1c7998602def086ad","message":"Waku LightPush failed: Remote peer rejected"}}
{"runId":"2026-07-11T11-08-34-252Z-waku-reliability-94931534","at":1783768123393,"type":"postcard_published","detail":{"workerProcess":"alpha","worker":"alpha","postcardId":"0x92acd03087af61bbb59766ce8a2329aeeff83d991e123a7adadd213a3b09234c","transactionHash":"0x8605df41b63b3ec7a6b96e92fd6038469be8cb13312103a1c7998602def086ad","blockNumber":35,"gasUsed":"128614","published":0,"staged":0,"deliveryPending":true,"deliveryError":"Waku LightPush failed: Remote peer rejected"}}
{"runId":"2026-07-11T11-08-34-252Z-waku-reliability-94931534","at":1783768123422,"type":"postcard_accepted","detail":{"workerProcess":"beta","worker":"beta","postcardId":"0x92acd03087af61bbb59766ce8a2329aeeff83d991e123a7adadd213a3b09234c","author":"0x094008467aa07e8e813e13f520d8a71ae5258e42","type":"observation","source":"peer"}}
{"runId":"2026-07-11T11-08-34-252Z-waku-reliability-94931534","at":1783768123608,"type":"scenario_pass","detail":{"scenario":"relay_kill","postcardId":"0x92acd03087af61bbb59766ce8a2329aeeff83d991e123a7adadd213a3b09234c"}}
{"runId":"2026-07-11T11-08-34-252Z-waku-reliability-94931534","at":1783768129069,"type":"fault_recovered","detail":{"scenario":"relay_kill","node":"node1"}}
{"runId":"2026-07-11T11-08-34-252Z-waku-reliability-94931534","at":1783768129675,"type":"fault_injected","detail":{"scenario":"filter_failover","node":"node2"}}
{"runId":"2026-07-11T11-08-34-252Z-waku-reliability-94931534","at":1783768131485,"type":"settlement_prepared","detail":{"workerProcess":"beta","worker":"beta","root":"0xc8edb472aecd46c35f7df41841b22876977400ecc99db38d4058aa6d232de2d2","postcardId":"0x02ed7bc5024758115ce90c1b4061b2306afad7a602d8819389a0108dbff4acc2","pennies":1}}
{"runId":"2026-07-11T11-08-34-252Z-waku-reliability-94931534","at":1783768131563,"type":"settlement_submitted","detail":{"workerProcess":"beta","worker":"beta","root":"0xc8edb472aecd46c35f7df41841b22876977400ecc99db38d4058aa6d232de2d2","transactionHash":"0xb67984c8d6ee87c47af7b8757716701c49d0f3286cf95dfc49296790ef8671ce"}}
{"runId":"2026-07-11T11-08-34-252Z-waku-reliability-94931534","at":1783768131663,"type":"waku_published","detail":{"workerProcess":"beta","worker":"beta","postcardId":"0x02ed7bc5024758115ce90c1b4061b2306afad7a602d8819389a0108dbff4acc2","startedAt":1783768131656,"completedAt":1783768131663,"successCount":1,"failureCount":0}}
{"runId":"2026-07-11T11-08-34-252Z-waku-reliability-94931534","at":1783768131663,"type":"postcard_accepted","detail":{"workerProcess":"beta","worker":"beta","postcardId":"0x02ed7bc5024758115ce90c1b4061b2306afad7a602d8819389a0108dbff4acc2","author":"0xce3efe304ddffd05ac1c25a9dc4d771266313c08","type":"observation","source":"local"}}
{"runId":"2026-07-11T11-08-34-252Z-waku-reliability-94931534","at":1783768131664,"type":"postcard_published","detail":{"workerProcess":"beta","worker":"beta","postcardId":"0x02ed7bc5024758115ce90c1b4061b2306afad7a602d8819389a0108dbff4acc2","transactionHash":"0xb67984c8d6ee87c47af7b8757716701c49d0f3286cf95dfc49296790ef8671ce","blockNumber":36,"gasUsed":"128602","published":1,"staged":0,"deliveryPending":false,"deliveryError":null}}
{"runId":"2026-07-11T11-08-34-252Z-waku-reliability-94931534","at":1783768131733,"type":"postcard_accepted","detail":{"workerProcess":"alpha","worker":"alpha","postcardId":"0x02ed7bc5024758115ce90c1b4061b2306afad7a602d8819389a0108dbff4acc2","author":"0xce3efe304ddffd05ac1c25a9dc4d771266313c08","type":"observation","source":"peer"}}
{"runId":"2026-07-11T11-08-34-252Z-waku-reliability-94931534","at":1783768131869,"type":"scenario_pass","detail":{"scenario":"filter_failover","postcardId":"0x02ed7bc5024758115ce90c1b4061b2306afad7a602d8819389a0108dbff4acc2"}}
{"runId":"2026-07-11T11-08-34-252Z-waku-reliability-94931534","at":1783768136295,"type":"fault_recovered","detail":{"scenario":"filter_failover","node":"node2"}}
{"runId":"2026-07-11T11-08-34-252Z-waku-reliability-94931534","at":1783768136389,"type":"settlement_prepared","detail":{"workerProcess":"alpha","worker":"alpha","root":"0xa3807303e62ea5aca17c9bb0b8af28511f433ca9ff7cc4f60d124551b491abab","postcardId":"0x6760c2da32b7967fded9142f4d6f135613e1aa810ff457e6d6f2cacae27a88cb","pennies":1}}
{"runId":"2026-07-11T11-08-34-252Z-waku-reliability-94931534","at":1783768136466,"type":"settlement_submitted","detail":{"workerProcess":"alpha","worker":"alpha","root":"0xa3807303e62ea5aca17c9bb0b8af28511f433ca9ff7cc4f60d124551b491abab","transactionHash":"0x302065589284daf5d4770775f8a7f1a729cc109be345af91f1b2ac1848a06997"}}
{"runId":"2026-07-11T11-08-34-252Z-waku-reliability-94931534","at":1783768136529,"type":"postcard_accepted","detail":{"workerProcess":"alpha","worker":"alpha","postcardId":"0x6760c2da32b7967fded9142f4d6f135613e1aa810ff457e6d6f2cacae27a88cb","author":"0x094008467aa07e8e813e13f520d8a71ae5258e42","type":"observation","source":"staged"}}
{"runId":"2026-07-11T11-08-34-252Z-waku-reliability-94931534","at":1783768136529,"type":"postcard_staged","detail":{"workerProcess":"alpha","worker":"alpha","postcardId":"0x6760c2da32b7967fded9142f4d6f135613e1aa810ff457e6d6f2cacae27a88cb","transactionHash":"0x302065589284daf5d4770775f8a7f1a729cc109be345af91f1b2ac1848a06997","blockNumber":37,"gasUsed":"128614","published":0,"staged":1,"deliveryPending":false,"deliveryError":null}}
{"runId":"2026-07-11T11-08-34-252Z-waku-reliability-94931534","at":1783768136611,"type":"worker_process_exit","detail":{"workerProcess":"alpha","code":null,"signal":"SIGKILL"}}
{"runId":"2026-07-11T11-08-34-252Z-waku-reliability-94931534","at":1783768139096,"type":"started","detail":{"workerProcess":"alpha-restarted","worker":"alpha","address":"0x094008467aa07e8e813e13f520d8a71ae5258e42","cypherId":"1","listen":{"transport":"waku","contentTopic":"/versus/1/postcards-31337-cf7ed3acca5a467e9e704c703e8d87f634fb0fc9-1-fault-66ab98a641ba/json","peerCount":2,"peers":[{"id":"16Uiu2HAm3cuhhRL2msUuLF62KRSfneFDx94RsuouyW25Ho42cFMq","protocols":["/vac/waku/filter-push/2.0.0-beta1","/vac/waku/filter-subscribe/2.0.0-beta1","/vac/waku/lightpush/2.0.0-beta1","/vac/waku/lightpush/3.0.0","/vac/waku/metadata/1.0.0","/vac/waku/relay/2.0.0","/vac/waku/store-query/3.0.0"]},{"id":"16Uiu2HAmCCQRbp36trRMKRjqhRv1GAD7i1Epty3q2LiutAYCJ1oN","protocols":["/vac/waku/filter-push/2.0.0-beta1","/vac/waku/filter-subscribe/2.0.0-beta1","/vac/waku/lightpush/2.0.0-beta1","/vac/waku/lightpush/3.0.0","/vac/waku/metadata/1.0.0","/vac/waku/relay/2.0.0","/vac/waku/store-query/3.0.0"]}],"protocolCounts":{"lightPush":2,"filter":2,"store":2,"relay":2}}}}
{"runId":"2026-07-11T11-08-34-252Z-waku-reliability-94931534","at":1783768139115,"type":"waku_published","detail":{"workerProcess":"alpha-restarted","worker":"alpha","postcardId":"0x92acd03087af61bbb59766ce8a2329aeeff83d991e123a7adadd213a3b09234c","startedAt":1783768139100,"completedAt":1783768139115,"successCount":2,"failureCount":0}}
{"runId":"2026-07-11T11-08-34-252Z-waku-reliability-94931534","at":1783768139119,"type":"waku_history_synced","detail":{"workerProcess":"alpha-restarted","worker":"alpha","launchId":"1","contentTopic":"/versus/1/postcards-31337-cf7ed3acca5a467e9e704c703e8d87f634fb0fc9-1-fault-66ab98a641ba/json","received":2,"completedAt":1783768139119}}
{"runId":"2026-07-11T11-08-34-252Z-waku-reliability-94931534","at":1783768139169,"type":"waku_published","detail":{"workerProcess":"alpha-restarted","worker":"alpha","postcardId":"0x6760c2da32b7967fded9142f4d6f135613e1aa810ff457e6d6f2cacae27a88cb","startedAt":1783768139117,"completedAt":1783768139169,"successCount":2,"failureCount":0}}
{"runId":"2026-07-11T11-08-34-252Z-waku-reliability-94931534","at":1783768139170,"type":"pending_postcards_published","detail":{"workerProcess":"alpha-restarted","worker":"alpha","count":2,"postcardIds":["0x92acd03087af61bbb59766ce8a2329aeeff83d991e123a7adadd213a3b09234c","0x6760c2da32b7967fded9142f4d6f135613e1aa810ff457e6d6f2cacae27a88cb"]}}
{"runId":"2026-07-11T11-08-34-252Z-waku-reliability-94931534","at":1783768139200,"type":"postcard_accepted","detail":{"workerProcess":"beta","worker":"beta","postcardId":"0x6760c2da32b7967fded9142f4d6f135613e1aa810ff457e6d6f2cacae27a88cb","author":"0x094008467aa07e8e813e13f520d8a71ae5258e42","type":"observation","source":"peer"}}
{"runId":"2026-07-11T11-08-34-252Z-waku-reliability-94931534","at":1783768139458,"type":"scenario_pass","detail":{"scenario":"publisher_crash","postcardId":"0x6760c2da32b7967fded9142f4d6f135613e1aa810ff457e6d6f2cacae27a88cb","noDoubleSettlement":true}}
{"runId":"2026-07-11T11-08-34-252Z-waku-reliability-94931534","at":1783768139465,"type":"settlement_prepared","detail":{"workerProcess":"alpha-restarted","worker":"alpha","root":"0x9912cf1eacc5e349a88dee34f544e03524527a303c1e9f3992d79165c86c6b1b","postcardId":"0x2863db3084c56c938a46649eac1d6df09eb5fba27f0fb747a377ad2753086638","pennies":1}}
{"runId":"2026-07-11T11-08-34-252Z-waku-reliability-94931534","at":1783768139542,"type":"settlement_submitted","detail":{"workerProcess":"alpha-restarted","worker":"alpha","root":"0x9912cf1eacc5e349a88dee34f544e03524527a303c1e9f3992d79165c86c6b1b","transactionHash":"0x24797272e2ca6196cd24734c04676b8579f040573187d2e79cfff04f963911b3"}}
{"runId":"2026-07-11T11-08-34-252Z-waku-reliability-94931534","at":1783768139638,"type":"postcard_accepted","detail":{"workerProcess":"alpha-restarted","worker":"alpha","postcardId":"0x2863db3084c56c938a46649eac1d6df09eb5fba27f0fb747a377ad2753086638","author":"0x094008467aa07e8e813e13f520d8a71ae5258e42","type":"observation","source":"staged"}}
{"runId":"2026-07-11T11-08-34-252Z-waku-reliability-94931534","at":1783768139638,"type":"postcard_staged","detail":{"workerProcess":"alpha-restarted","worker":"alpha","postcardId":"0x2863db3084c56c938a46649eac1d6df09eb5fba27f0fb747a377ad2753086638","transactionHash":"0x24797272e2ca6196cd24734c04676b8579f040573187d2e79cfff04f963911b3","blockNumber":38,"gasUsed":"128614","published":0,"staged":1,"deliveryPending":false,"deliveryError":null}}
{"runId":"2026-07-11T11-08-34-252Z-waku-reliability-94931534","at":1783768140949,"type":"waku_published","detail":{"workerProcess":"alpha-restarted","worker":"alpha","postcardId":"0x2863db3084c56c938a46649eac1d6df09eb5fba27f0fb747a377ad2753086638","startedAt":1783768140855,"completedAt":1783768140949,"successCount":2,"failureCount":0}}
{"runId":"2026-07-11T11-08-34-252Z-waku-reliability-94931534","at":1783768140950,"type":"staged_postcard_published","detail":{"workerProcess":"alpha-restarted","worker":"alpha","postcardId":"0x2863db3084c56c938a46649eac1d6df09eb5fba27f0fb747a377ad2753086638","count":1}}
{"runId":"2026-07-11T11-08-34-252Z-waku-reliability-94931534","at":1783768140980,"type":"postcard_accepted","detail":{"workerProcess":"beta","worker":"beta","postcardId":"0x2863db3084c56c938a46649eac1d6df09eb5fba27f0fb747a377ad2753086638","author":"0x094008467aa07e8e813e13f520d8a71ae5258e42","type":"observation","source":"peer"}}
{"runId":"2026-07-11T11-08-34-252Z-waku-reliability-94931534","at":1783768141162,"type":"scenario_pass","detail":{"scenario":"drop_and_retry","postcardId":"0x2863db3084c56c938a46649eac1d6df09eb5fba27f0fb747a377ad2753086638","delayMs":1200}}
{"runId":"2026-07-11T11-08-34-252Z-waku-reliability-94931534","at":1783768141167,"type":"settlement_prepared","detail":{"workerProcess":"alpha-restarted","worker":"alpha","root":"0x2922d7315603353c4bc1334edb613b0032c7b542c80857bd44ac657419960177","postcardId":"0xa55d08f75c629f50b107feb02a130fd853849d5834a76111bef5f1a179adce0f","pennies":1}}
{"runId":"2026-07-11T11-08-34-252Z-waku-reliability-94931534","at":1783768141246,"type":"settlement_submitted","detail":{"workerProcess":"alpha-restarted","worker":"alpha","root":"0x2922d7315603353c4bc1334edb613b0032c7b542c80857bd44ac657419960177","transactionHash":"0xd667274aecb37c1b74ef35479c857f2b1a050d865ec4f23909bd9b26b1b80b08"}}
{"runId":"2026-07-11T11-08-34-252Z-waku-reliability-94931534","at":1783768141308,"type":"postcard_accepted","detail":{"workerProcess":"alpha-restarted","worker":"alpha","postcardId":"0xa55d08f75c629f50b107feb02a130fd853849d5834a76111bef5f1a179adce0f","author":"0x094008467aa07e8e813e13f520d8a71ae5258e42","type":"observation","source":"staged"}}
{"runId":"2026-07-11T11-08-34-252Z-waku-reliability-94931534","at":1783768141308,"type":"postcard_staged","detail":{"workerProcess":"alpha-restarted","worker":"alpha","postcardId":"0xa55d08f75c629f50b107feb02a130fd853849d5834a76111bef5f1a179adce0f","transactionHash":"0xd667274aecb37c1b74ef35479c857f2b1a050d865ec4f23909bd9b26b1b80b08","blockNumber":39,"gasUsed":"128602","published":0,"staged":1,"deliveryPending":false,"deliveryError":null}}
{"runId":"2026-07-11T11-08-34-252Z-waku-reliability-94931534","at":1783768141311,"type":"settlement_prepared","detail":{"workerProcess":"alpha-restarted","worker":"alpha","root":"0x5f5826e013667d16f826596a314d6432afaa42d0c6fe8a6e530db87d3bf4887f","postcardId":"0x7329d20b6927ca01fdbefc073dd8532e48e259e701004b8dec49019161135efa","pennies":1}}
{"runId":"2026-07-11T11-08-34-252Z-waku-reliability-94931534","at":1783768141361,"type":"settlement_failed","detail":{"workerProcess":"alpha-restarted","worker":"alpha","root":"0x5f5826e013667d16f826596a314d6432afaa42d0c6fe8a6e530db87d3bf4887f","postcardId":"0x7329d20b6927ca01fdbefc073dd8532e48e259e701004b8dec49019161135efa","submitted":false,"message":"nonce has already been used (transaction=\"0x02f90112827a6907843b9aca00843c65e0468301f66694a513e6e4b8f2a923d98304ec87f64353c4d5c85380b8a4d0aff2b1000000000000000000000000000000000000000000000000000000000000000100000000000000000000000000000000000000000000000000000000000000015f5826e013667d16f826596a314d6432afaa42d0c6fe8a6e530db87d3bf4887f00000000000000000000000000000000000000000000000000000000000000010000000000000000000000000000000000000000000000000000000000000001c080a0786f7aa9b35a0131bf4e644d2b54d8f519e887777150a84d366bc578cb56d030a005b3da19d2301bf60d360304f84c741abae82e96bf1938aaacf1cb96f5038fa0\", info={ \"error\": { \"code\": -32000, \"data\": { \"data\": null, \"message\": \"Nonce too low. Expected nonce to be 8 but got 7. Note that transactions can't be queued when automining.\" }, \"message\": \"Nonce too low. Expected nonce to be 8 but got 7. Note that transactions can't be queued when automining.\" } }, code=NONCE_EXPIRED, version=6.17.0)"}}
{"runId":"2026-07-11T11-08-34-252Z-waku-reliability-94931534","at":1783768141361,"type":"worker_error","detail":{"workerProcess":"alpha-restarted","worker":"alpha","command":"preparePaidSignal","code":"NONCE_EXPIRED","message":"nonce has already been used (transaction=\"0x02f90112827a6907843b9aca00843c65e0468301f66694a513e6e4b8f2a923d98304ec87f64353c4d5c85380b8a4d0aff2b1000000000000000000000000000000000000000000000000000000000000000100000000000000000000000000000000000000000000000000000000000000015f5826e013667d16f826596a314d6432afaa42d0c6fe8a6e530db87d3bf4887f00000000000000000000000000000000000000000000000000000000000000010000000000000000000000000000000000000000000000000000000000000001c080a0786f7aa9b35a0131bf4e644d2b54d8f519e887777150a84d366bc578cb56d030a005b3da19d2301bf60d360304f84c741abae82e96bf1938aaacf1cb96f5038fa0\", info={ \"error\": { \"code\": -32000, \"data\": { \"data\": null, \"message\": \"Nonce too low. Expected nonce to be 8 but got 7. Note that transactions can't be queued when automining.\" }, \"message\": \"Nonce too low. Expected nonce to be 8 but got 7. Note that transactions can't be queued when automining.\" } }, code=NONCE_EXPIRED, version=6.17.0)"}}
{"runId":"2026-07-11T11-08-34-252Z-waku-reliability-94931534","at":1783768141360,"type":"run_failed","detail":{"message":"nonce has already been used (transaction=\"0x02f90112827a6907843b9aca00843c65e0468301f66694a513e6e4b8f2a923d98304ec87f64353c4d5c85380b8a4d0aff2b1000000000000000000000000000000000000000000000000000000000000000100000000000000000000000000000000000000000000000000000000000000015f5826e013667d16f826596a314d6432afaa42d0c6fe8a6e530db87d3bf4887f00000000000000000000000000000000000000000000000000000000000000010000000000000000000000000000000000000000000000000000000000000001c080a0786f7aa9b35a0131bf4e644d2b54d8f519e887777150a84d366bc578cb56d030a005b3da19d2301bf60d360304f84c741abae82e96bf1938aaacf1cb96f5038fa0\", info={ \"error\": { \"code\": -32000, \"data\": { \"data\": null, \"message\": \"Nonce too low. Expected nonce to be 8 but got 7. Note that transactions can't be queued when automining.\" }, \"message\": \"Nonce too low. Expected nonce to be 8 but got 7. Note that transactions can't be queued when automining.\" } }, code=NONCE_EXPIRED, version=6.17.0)","stack":"Error: nonce has already been used (transaction=\"0x02f90112827a6907843b9aca00843c65e0468301f66694a513e6e4b8f2a923d98304ec87f64353c4d5c85380b8a4d0aff2b1000000000000000000000000000000000000000000000000000000000000000100000000000000000000000000000000000000000000000000000000000000015f5826e013667d16f826596a314d6432afaa42d0c6fe8a6e530db87d3bf4887f00000000000000000000000000000000000000000000000000000000000000010000000000000000000000000000000000000000000000000000000000000001c080a0786f7aa9b35a0131bf4e644d2b54d8f519e887777150a84d366bc578cb56d030a005b3da19d2301bf60d360304f84c741abae82e96bf1938aaacf1cb96f5038fa0\", info={ \"error\": { \"code\": -32000, \"data\": { \"data\": null, \"message\": \"Nonce too low. Expected nonce to be 8 but got 7. Note that transactions can't be queued when automining.\" }, \"message\": \"Nonce too low. Expected nonce to be 8 but got 7. Note that transactions can't be queued when automining.\" } }, code=NONCE_EXPIRED, version=6.17.0)\n    at makeError (C:\\Users\\Razgriz\\Documents\\Github\\perps\\apps\\pet\\node_modules\\ethers\\lib.commonjs\\utils\\errors.js:137:21)\n    at JsonRpcProvider.getRpcError (C:\\Users\\Razgriz\\Documents\\Github\\perps\\apps\\pet\\node_modules\\ethers\\lib.commonjs\\providers\\provider-jsonrpc.js:726:49)\n    at C:\\Users\\Razgriz\\Documents\\Github\\perps\\apps\\pet\\node_modules\\ethers\\lib.commonjs\\providers\\provider-jsonrpc.js:302:45\n    at process.processTicksAndRejections (node:internal/process/task_queues:103:5)"}}
{"runId":"2026-07-11T11-08-34-252Z-waku-reliability-94931534","at":1783768141386,"type":"worker_process_exit","detail":{"workerProcess":"beta","code":null,"signal":"SIGTERM"}}
{"runId":"2026-07-11T11-08-34-252Z-waku-reliability-94931534","at":1783768141391,"type":"worker_process_exit","detail":{"workerProcess":"partitionAlpha","code":null,"signal":"SIGTERM"}}
{"runId":"2026-07-11T11-08-34-252Z-waku-reliability-94931534","at":1783768141396,"type":"worker_process_exit","detail":{"workerProcess":"partitionBeta","code":null,"signal":"SIGTERM"}}
